:0300000002041ED9
:0C041E00787FE4F6D8FD75814F0204657C
:1005AD000C12C0F9A4B0999282F88090BFFF081F79
:0805BD00FEFDFBF7EFDFBF7F3D
:10057600D3EF9400EE940040147D657C18ED1D7059
:0D058600011CED4C70F7EF1F70E61E80E3C6
:010593002245
:040594007F0A7E005C
:10059800D3EF9400EE9400400B7D13DDFEEF1F7047
:0405A800EF1E80ECD6
:0105AC00222C
:10027400E52775F00A84F535E52775F00A8485F0DD
:100284003675370AE51075F00A84F538E51075F00F
:100294000A8485F039753A0AE50F75F00A84F53B4E
:1002A400E50F75F00A8485F03CE53475F00A84F5B1
:1002B40028E53475F00A8485F029752A0AE5327533
:1002C400F00A84F52BE53275F00A8485F02C752D3F
:1002D4000B85302E853F2FE50C75F00A84F540E53B
:1002E4000C75F00A8485F04175420AE50975F00A37
:1002F40084F543E50975F00A8485F04475450B855A
:100304003046853F47E50D75F00A84F548E50D75DF
:10031400F00A8485F049754A0AE50A75F00A84F5FD
:100324004BE50A75F00A8485F04C754D0B85304E0B
:10033400853F4FE4FCE53F701674352CF8E6241233
:10034400F8E6F580BC0708E530B4010353807FE587
:100354003FB4010B74282CF8E62412F8E6F580E586
:100364003FB4020B74402CF8E62412F8E6F580E55D
:100374003FB4030B74482CF8E62412F8E6F58074B5
:100384001F2CF8E6F5A0E53DB40108E50E7004D293
:10039400A0D2A1E53DB40208E50E7004D2A3D2A414
:1003A400E53DB40308E50E7004D2A6D2A7E53FB438
:1003B4000108E50B7004E50E601AE53FB40208E598
:1003C400117004E50E600DE53FB4030CE51E7008E2
:1003D400E50E7004D2A0D2A1E53FB40109E50BB447
:1003E4000104E50E601CE53FB40209E511B4010403
:1003F400E50E600EE53FB4030DE51EB40108E50EFD
:100404007004D2A3D2A47F057E0012059875A0FFC4
:090414000CEC64086003020339DA
:01041D0022BC
:10001E00E53F60030200D72094347F0AFE12059854
:10002E00209425053DE53DB40403E4F53DE53D642E
:10003E0001600BE53D64026005E53DB40302C28C30
:10004E0020940512027480F81205943094FDE53D5B
:10005E007002D28CE53D6401702120961E7F0AFE4F
:10006E0012059820960A0527E527B41803E4F5270C
:10007E0012059420960512027480F8E53D64027014
:10008E002120961E7F0AFE12059820960A0510E57D
:10009E0010B43C03E4F51012059420960512027478
:1000AE0080F8E53D6403702120961E7F0AFE12053E
:1000BE009820960A050FE50FB43C03E4F50F1205E0
:1000CE009420960512027480F820951E1205942035
:1000DE0095120530E530B40203E4F5302095051293
:1000EE00027480F81205943095FDE53D600302021E
:1000FE00732097217F0AFE120598209712053FE57F
:10010E003FB40403E4F53F20970512027480F81201
:10011E0005943097FDE53F6401706A20941B7F0AB9
:10012E00FE12059820940A050BE50BB40203E4F5C4
:10013E000B20940512027480F8E50B702120961E98
:10014E007F0AFE12059820960A0534E534B418038A
:10015E00E4F53412059420960512027480F8E50B2E
:10016E006401702120961E7F0AFE12059820960AC1
:10017E000532E532B43C03E4F532120594209605BF
:10018E0012027480F8E53F6402706A20941B7F0AA5
:10019E00FE12059820940A0511E511B40203E4F548
:1001AE001120940512027480F8E511702120961E1C
:1001BE007F0AFE12059820960A050CE50CB418036A
:1001CE00E4F50C12059420960512027480F8E511E0
:1001DE006401702120961E7F0AFE12059820960A51
:1001EE000509E509B43C03E4F509120594209605CA
:1001FE0012027480F8E53F6403706A20941B7F0A34
:10020E00FE12059820940A051EE51EB40203E4F5BD
:10021E001E20940512027480F8E51E702120961E91
:10022E007F0AFE12059820960A050DE50DB41803F7
:10023E00E4F50D12059420960512027480F8E51E61
:10024E006401702120961E7F0AFE12059820960AE0
:10025E00050AE50AB43C03E4F50A12059420960556
:06026E0012027480F82268
:1004AA00758911758C4B758A28758D4B758B28D279
:1004BA00AFD2A9D2ABD28CD28ED2B775270C120288
:1004CA007412001EE53E7010E527B5340BE510B531
:1004DA003206E53064016027E53E7010E527B50C69
:1004EA000BE510B50906E53064016013E53E70CEF0
:1004FA00E527B50DC9E510B50AC4E530B401BFC298
:0C050A00B77F327E00120598D2B780B295
:03000B00020516D5
:10051600C0E0C0D0758C4B758A280533E533B4141A
:1005260005753300050FE50FB43C05750F00051082
:10053600E510B43C057510000527E527B4180375CA
:070546002700D0D0D0E03205
:03001B0002054D8E
:10054D00C0E0C0D0758D4B758B2805310508E531A0
:10055D00B40A06753100630EFFE508B4050675088B
:09056D0000633EFFD0D0D0E03263
:10042A000204AAE493A3F8E493A34003F68001F23A
:10043A0008DFF48029E493A3F85407240CC8C333D3
:10044A00C4540F4420C8834004F456800146F6DFA2
:10045A00E4800B01020408102040809005ADE47E80
:10046A00019360BCA3FF543F30E509541FFEE49397
:10047A00A360010ECF54C025E060A840B8E493A35E
:10048A00FAE493A3F8E493A3C8C582C8CAC583CA89
:10049A00F0A3C8C582C8CAC583CADFE9DEE780BE41
:0105C5000035
:00000001FF
